:020000040800F2
:1000000060060020F951000895510008975100083A
:10001000995100089B5100089D5100080000000004
:100020000000000000000000000000009F510008D8
:10003000A151000800000000A3510008A5510008CC
:1000400023520008275200082B5200082F520008A4
:1000500033520008375200083B5200083F52000854
:1000600043520008475200084B5200084F52000804
:1000700053520008575200085B5200085F520008B4
:1000800063520008675200086B5200086F52000864
:1000900073520008775200087B5200087F52000814
:1000A00083520008875200088B5200088F520008C4
:1000B00093520008975200089B5200089F52000874
:1000C000A3520008A7520008AB520008AF52000824
:1000D000B3520008B7520008BB520008BF520008D4
:1000E000C3520008C7520008CB520008CF52000884
:1000F000D3520008D7520008DB520008DF52000834
:10010000E3520008E7520008EB520008EF520008E3
:10011000F3520008F7520008FB520008FF52000893
:1001200003530008075300080B5300080F5300083F
:1001300013530008175300081B5300081F530008EF
:1001400023530008275300082B5300082F5300089F
:1001500033530008375300083B5300083F5300084F
:1001600043530008475300084B5300084F530008FF
:1001700053530008575300085B5300080000000069
:100180005F530008635300080000000000000000F7
:10019000000000000000000000000000000000005F
:1001A000000000000000000000000000000000004F
:1001B00000000000000000000000800180018001BC
:1001C0008001800180018001800180018001800127
:1001D000800180010000000080018001000000001B
:1001E000000000000000000000000000CC00CC0077
:1001F000CC00CC00CC00CC000000000000000000CF
:1002000000000000000000000000000000000000EE
:1002100000000000000000000000000000000000DE
:1002200000000000600C600C600C30063006FE1F01
:10023000FE1F300638071803FE1FFE1F18031803A1
:100240008C018C018C01000000008000E003F80F9D
:100250009C0E8C1C8C188C009800F801E007800E16
:10026000801C8C188C189C18B80CF00FE0038000D0
:1002700080000000000000000000000000000E18D8
:100280001B0C110C11061106110311039B018E01A9
:10029000C038C06C60446044304430441844186C2A
:1002A0000C380000000000000000E001F0033807F7
:1002B000180618063003F001F000F8009C310E33E8
:1002C000061E061C061C063FFC73F0210000000001
:1002D0000000000000000000000000000C000C0006
:1002E0000C000C000C000C000000000000000000DE
:1002F00000000000000000000000000000000000FE
:100300000000000000000000000000020003800167
:10031000C000C000600060003000300030003000DD
:10032000300030003000300060006000C000C000CD
:100330008001000300020000000020006000C000F7
:10034000800180010003000300060006000600068D
:10035000000600060006000600030003800180017D
:10036000C00060002000000000000000000000004D
:1003700000000000C000C000D806F807E00130030C
:10038000380700000000000000000000000000002E
:10039000000000000000000000000000000000005D
:1003A0000000000080018001800180018001FC3F8D
:1003B000FC3F80018001800180018001000000007D
:1003C000000000000000000000000000000000002D
:1003D000000000000000000000000000000000001D
:1003E000000000000000000000008001800100010A
:1003F000000180000000000000000000000000007C
:1004000000000000000000000000000000000000EC
:10041000E007E0070000000000000000000000000E
:1004200000000000000000000000000000000000CC
:1004300000000000000000000000000000000000BC
:1004400000000000000000000000C000C00000002C
:1004500000000000000000000000000C000C00067E
:1004600000060006000300030003800380018001F2
:100470008001C000C000C0006000600000000000FB
:1004800000000000000000000000E003F007380E4C
:10049000180C0C180C180C180C180C180C180C183C
:1004A0000C180C18180C380EF007E00300000000C0
:1004B0000000000000000000000000018001C001F9
:1004C000F001980188018001800180018001800194
:1004D0008001800180018001800180010000000016
:1004E00000000000000000000000E003F80F180CFE
:1004F0000C180C1800180018000C000600038001EE
:10050000C000600030001800FC1FFC1F000000004D
:1005100000000000000000000000E001F807180ED5
:100520000C0C0C0C000C0006C003C007000C0018DB
:1005300000180C180C18180CF807E0030000000055
:1005400000000000000000000000000C000E000F82
:10055000000F800DC00C600C600C300C180C0C0CE3
:10056000FC3FFC3F000C000C000C000C00000000E5
:1005700000000000000000000000F80FF80F180055
:1005800018000C00EC03FC071C0E001C00180018DF
:1005900000180C181C0C180EF807E00300000000EF
:1005A00000000000000000000000C007F00F381C31
:1005B000181818000C00CC03EC0F3C0E1C1C0C1877
:1005C0000C180C18181C380EF007E003000000008F
:1005D00000000000000000000000FC1FFC1F000CD9
:1005E00000060006000380038001C001C000E00097
:1005F000600060007000300030003000000000003B
:1006000000000000000000000000E003F007380ECA
:10061000180C180C180C3806F007F007180C0C18FA
:100620000C180C180C18380CF80FE0030000000030
:1006300000000000000000000000E003F007380E9A
:100640001C0C0C180C180C181C1C381EF81BE0197C
:100650000018000C000C1C0EF807F0010000000050
:10066000000000000000000000000000000000008A
:100670000000000080018001000000000000000078
:100680000000000000000000800180010000000068
:10069000000000000000000000000000000000005A
:1006A0000000000080018001000000000000000048
:1006B0000000000000000000800180010001000136
:1006C00080000000000000000000000000000000AA
:1006D00000000000000000000010001C800FE0037C
:1006E000F8001800F800E003800F001C0010000064
:1006F00000000000000000000000000000000000FA
:100700000000000000000000F81F000000000000D2
:10071000F81F0000000000000000000000000000C2
:1007200000000000000000000000000000000000C9
:10073000000000000000000008003800F001C007C1
:10074000001F0018001FC007F0013800080000005B
:1007500000000000000000000000E003F80F180C8B
:100760000C180C180018000C000600038001C000D3
:10077000C000C00000000000C000C0000000000079
:10078000000000000000000000000000E007181852
:100790000420C229224A1144094409440944092277
:1007A0001113E20C024004201818E00700000000BA
:1007B0000000000000000000000080038003C0066D
:1007C000C006C006600C600C301830183018F83FB6
:1007D000F83F1C700C600C6006C006C000000000F2
:1007E00000000000000000000000FC03FC0F0C0CE7
:1007F0000C180C180C180C0CFC07FC0F0C180C3007
:100800000C300C300C300C18FC1FFC0700000000F2
:1008100000000000000000000000C007F01F383892
:100820001C300C700660060006000600060006007C
:10083000060006600C701C30F01FE007000000008E
:1008400000000000000000000000FE03FE0F060E86
:100850000618061806300630063006300630063018
:10086000063006180618060EFE0FFE0300000000F4
:1008700000000000000000000000FC3FFC3F0C00F6
:100880000C000C000C000C00FC1FFC1F0C000C00EA
:100890000C000C000C000C00FC3FFC3F00000000B2
:1008A00000000000000000000000F83FF83F1800C2
:1008B0001800180018001800F81FF81F180018007A
:1008C0001800180018001800180018000000000098
:1008D00000000000000000000000E00FF83F3C783E
:1008E0000E6006E007C00300030003FE03FE03C022
:1008F00007C006C00EC03CF0F83FE00F000000004B
:10090000000000000000000000000C300C300C3033
:100910000C300C300C300C30FC3FFC3F0C300C30F9
:100920000C300C300C300C300C300C30000000005F
:100930000000000000000000000080018001800134
:10094000800180018001800180018001800180019F
:100950008001800180018001800180010000000091
:100960000000000000000000000000060006000675
:100970000006000600060006000600060006000647
:100980000006180618063807F003E0010000000012
:100990000000000000000000000006300618060CF1
:1009A000060606038601C60066007600DE008E019C
:1009B00006030606060C0618063006600000000056
:1009C00000000000000000000000180018001800DF
:1009D0001800180018001800180018001800180057
:1009E0001800180018001800F81FF81F0000000079
:1009F000000000000000000000000EE01EF01EF0ED
:100A00001EF036D836D836D836D866CC66CC66CC0A
:100A1000C6C6C6C6C6C6C6C686C386C30000000014
:100A2000000000000000000000000C301C303C30D2
:100A30003C306C306C30CC30CC308C310C330C33DF
:100A40000C360C360C3C0C3C0C380C300000000012
:100A500000000000000000000000E007F81F1C3844
:100A60000E70066003C003C003C003C003C003C010
:100A700003C006600E701C38F81FE007000000007D
:100A800000000000000000000000FC0FFC1F0C38FC
:100A90000C300C300C300C300C18FC1FFC070C0018
:100AA0000C000C000C000C000C000C0000000000FE
:100AB00000000000000000000000E007F81F1C38E4
:100AC0000E70066003E003C003C003C003C003C090
:100AD00007E006630E3F1C3CF83FE0F700C0000053
:100AE00000000000000000000000FE0FFE1F06389E
:100AF0000630063006300638FE1FFE0706030606DF
:100B0000060C0618061806300630066000000000C5
:100B100000000000000000000000E003F80F1C0CC3
:100B20000C180C180C001C00F803E00F001E003815
:100B3000063006300E301C1CF80FE00700000000E5
:100B400000000000000000000000FE7FFE7F80012A
:100B5000800180018001800180018001800180018D
:100B6000800180018001800180018001000000007F
:100B7000000000000000000000000C300C300C30C1
:100B80000C300C300C300C300C300C300C300C3085
:100B90000C300C300C301818F81FE0070000000073
:100BA0000000000000000000000003600630063076
:100BB00006300C180C180C18180C180C380E3006CF
:100BC0003006700760036003C001C0010000000030
:100BD000000000000000000000000360C361C3616A
:100BE000C3616633663366336633663366336C1BC4
:100BF0006C1B6C1B2C1A3C1E380E380E00000000BB
:100C0000000000000000000000000FE00C70183031
:100C10003018700C600EC00780038003C003E0062C
:100C2000700C301C18180C300E6007E0000000003B
:100C30000000000000000000000003C006600C304F
:100C40001C383818300C6006E007C00380018001B2
:100C5000800180018001800180018001000000008E
:100C600000000000000000000000FC7FFC7F00602E
:100C700000300018000C000600038001C000600076
:100C8000300018000C000600FE7FFE7F0000000010
:100C900000000000000000000000E003E00360002E
:100CA0006000600060006000600060006000600044
:100CB0006000600060006000600060006000600034
:100CC0006000E003E003000000003000300060003E
:100CD00060006000C000C000C000C0018001800151
:100CE000800100030003000300060006000000006E
:100CF00000000000000000000000E003E00300032B
:100D000000030003000300030003000300030003CB
:100D100000030003000300030003000300030003BB
:100D20000003E003E003000000000000C001C00178
:100D300060036003600330063006180C180C0000D6
:100D400000000000000000000000000000000000A3
:100D50000000000000000000000000000000000093
:100D60000000000000000000000000000000000083
:100D700000000000000000000000FFFFFFFF000077
:100D8000000000000000000000000C000C000C003F
:100D90000C000C000C00000000000000000000002F
:100DA0000000000000000000000000000000000043
:100DB0000000000000000000000000000000000033
:100DC00000000000F003F8071C0C0C0C000FF00FE3
:100DD000F80C0C0C0C0C1C0FF80FF01800000000A5
:100DE00000000000000000000000180018001800BB
:100DF00018001800D803F80F380C1818181818180D
:100E0000181818181818380CF80FD803000000002C
:100E100000000000000000000000000000000000D2
:100E200000000000C003F007300E180C1800180076
:100E300018001800180C300EF007C0030000000066
:100E4000000000000000000000000018001800185A
:100E500000180018C01BF01F301C1818181818189C
:100E6000181818181818301CF01FC01B00000000BC
:100E70000000000000000000000000000000000072
:100E800000000000C003F00F300C1818F81FF81F06
:100E9000180018003818301CF00FC00700000000C0
:100EA00000000000000000000000800FC00FC00024
:100EB000C000C000F007F007C000C000C000C000C4
:100EC000C000C000C000C000C000C00000000000A2
:100ED0000000000000000000000000000000000012
:100EE00000000000E00DF80F180E0C0C0C0C0C0CA0
:100EF0000C0C0C0C0C0C180EF80FE00D000C0C0C6C
:100F00001C06F807F0010000000018001800180087
:100F100018001800D807F80F381C181818181818D7
:100F200018181818181818181818181800000000A1
:100F300000000000000000000000C000C000000031
:100F400000000000C000C000C000C000C000C00021
:100F5000C000C000C000C000C000C0000000000011
:100F600000000000000000000000C000C000000001
:100F700000000000C000C000C000C000C000C000F1
:100F8000C000C000C000C000C000C000C000C00061
:100F9000C000F8007800000000000C000C000C00FD
:100FA0000C000C000C0C0C060C038C01CC006C002B
:100FB000FC009C018C030C030C060C0C00000000D0
:100FC00000000000000000000000C000C000C000E1
:100FD000C000C000C000C000C000C000C000C00011
:100FE000C000C000C000C000C000C0000000000081
:100FF00000000000000000000000000000000000F1
:10100000000000007C3CFF7EC7E383C183C183C135
:1010100083C183C183C183C183C183C10000000038
:1010200000000000000000000000000000000000C0
:10103000000000009807F80F381C18181818181826
:101040001818181818181818181818180000000080
:101050000000000000000000000000000000000090
:1010600000000000C003F00F300C181818181818F2
:10107000181818181818300CF00FC00300000000E2
:101080000000000000000000000000000000000060
:1010900000000000D803F80F380C1818181818189A
:1010A000181818181818380CF80FD803180018005A
:1010B00018001800180000000000000000000000E8
:1010C00000000000C01BF01F301C1818181818185A
:1010D000181818181818301CF01FC01B001800181A
:1010E00000180018001800000000000000000000B8
:1010F00000000000B007F003700030003000300046
:1011000030003000300030003000300000000000BF
:1011100000000000000000000000000000000000CF
:1011200000000000E003F003380E180C3800F00354
:10113000C007000C180C380EF007E0030000000098
:101140000000000000000000000000008000C0005F
:10115000C000C000F007F007C000C000C000C00021
:10116000C000C000C000C000C00780070000000031
:10117000000000000000000000000000000000006F
:10118000000000001818181818181818181818183F
:10119000181818181818381CF01FE0190000000063
:1011A000000000000000000000000000000000003F
:1011B000000000000C18180C180C180C3006300633
:1011C0003006600360036003C001C001000000003E
:1011D000000000000000000000000000000000000F
:1011E00000000000C141C141C36163636363636385
:1011F0003636363636361C1C1C1C1C1C0000000003
:1012000000000000000000000000000000000000DE
:10121000000000001C38381C300C600660036003BE
:10122000600360036006300C381C1C3800000000AE
:1012300000000000000000000000000000000000AE
:10124000000000001830301830187018600C600C66
:10125000E00CC006C006800380038003800180018B
:10126000C001F0007000000000000000000000005D
:1012700000000000FC1FFC1F000C000600038001A2
:10128000C000600030001800FC1FFC1F00000000C0
:101290000000000000000000000000038001C0000A
:1012A000C000C000C000C000C0006000600030008E
:1012B00060004000C000C000C000C000C000C0000E
:1012C0008001000300000000000080018001800117
:1012D0008001800180018001800180018001800106
:1012E00080018001800180018001800180018001F6
:1012F000800180018001000000006000C000C0018A
:10130000800180018001800180010003000300064C
:1013100000030001800180018001800180018001C3
:10132000C00060000000000000000000000000009D
:101330000000000000000000F010F81F080F00007F
:10134000000000000000000000000000000000009D
:1013500000000000000000002DE9F04F0FF2A41C77
:10136000A1B0DCE90089CDE900892A9DDFF8109C55
:10137000049100248DF843500D944FF0FF388246BD
:1013800016461F460FE0B3462C461BF8011B049877
:10139000D0470028049000F0A2800D98401C641EE5
:1013A0000D90F2D176193078252808D1002100223D
:1013B0000791089209910A920B910C920DE06A46EE
:1013C0004146304600F0F4FF050001D10D98A1E040
:1013D000D9D50125E6E741F0010116F8010F2028D3
:1013E000F9D023280CD02B2804D02D2805D0302864
:1013F00009D076E041F00201EFE741F00401ECE7AB
:1014000041F00801E9E741F01001E6E70F9209E039
:101410000F98484505DA00EB800402EB4402303AAD
:101420000F92761C3278A2F130000A28F0D330787F
:101430002E2818BFCDF8388022D116F8010F2A289F
:1014400007D138683860761C50F8042B38600E924B
:1014500016E02D280CBF761C002000220E920AE018
:1014600040B90E9A4A4505DA02EB820403EB4403C5
:10147000303B0E93761C3378A3F130020A2AEFD367
:10148000ADF8401021A0317800F09CFF08B116F8AB
:10149000010B8DF842009DF84200682804D1307895
:1014A00068280AD1622105E06C2804BF30786C28D6
:1014B00003D171218DF84210761C12A806903A468D
:1014C00016F8013B02A9504600F064F838B912AA98
:1014D00002A9504600F0CAF900287FF564AF4046E3
:1014E00018E02A2892D13A683A6052F8040B3A6020
:1014F00000280F9003D540420F9041F00401761C64
:1015000095E700000000000000000000686A6C74AD
:101510007A4C000021B0BDE8F08F622820D0682806
:1015200011D06A2803D06C2827D0712825D10868EB
:10153000C01D20F007000860D0E9002308300860D3
:10154000194610467047002A0A680A60106803D0DE
:10155000121D0A6000B217E0121D0A6080B217E087
:10156000002A0A680A60106803D0121D0A6040B29F
:101570000AE0121D0A60C0B20AE0002A0A680A6086
:10158000106803D0121D0A60C1177047121D0A604F
:10159000002170477CB50D4611461C462E69B4F1FA
:1015A000250200F051811C3A00F08680121F022AA9
:1015B00040F282800E3A00F00B81521F5AD0093A55
:1015C0007AD0921E16D0521E35D0521E022A73D9DE
:1015D000121F30D0521F00F09A80521E4AD0521E65
:1015E00000F0E480D21E00F00181921E42D0D21E93
:1015F00040D02FE195F83A406C2C09D06869421C24
:101600006A610A680A6052F8043B0A6033542BE1AD
:101610000A680A6052F8043B0A60009300220192B3
:101620004FF0FF332B636A46294600F09AF90028F1
:1016300040F11A8105E195F83A000122FFF76DFFAC
:10164000C5E900010023994204DA6869411C696117
:101650002D220DE0288F810704D56869411C69613E
:101660002B2205E0C00722D56869411C6961202250
:1016700032541CE095F83A000022FFF74EFFC5E90E
:10168000000195F83800010711D5D5E900230020A5
:10169000834208BF82420AD044F02000782806D155
:1016A000686930213154401C421C6A61345421461F
:1016B00068693044E86087E00868C01D20F00700D2
:1016C0000860D0E9002308300860C5E90023D5E9A7
:1016D0000001C80F04D06869411C69612D220DE02A
:1016E000288F810704D56869411C69612B2205E0B8
:1016F000C00704D56869411C6961202232546869B9
:101700003044E8602146284600F03AFAACE005F1A2
:101710003A02507820B14FF0FF340FF6343074E0C5
:101720001078622808D0682824D06A2812D06C2843
:101730002ED071280ED02BE00A680A6052F8040BF4
:101740000A6020B94FF0FF340FF61C305DE0E96A03
:10175000017089E00A680A6052F8040B0A6020B937
:101760004FF0FF340FF600304FE0EA6AD317C0E9BC
:10177000002379E00A680A6052F8040B0A6020B975
:101780004FF0FF340FF6E0203FE0E96A01806BE0A4
:101790000A680A6052F8040B0A6020B94FF0FF345F
:1017A0000FF6C42031E0E96A01605DE00A680A6072
:1017B00052F8040B0A60002120F0000221F0FF33F0
:1017C000C5E90023EE607821284600F02DF94BE0B2
:1017D0006C2285F83A200B680B6053F8042B0B60E1
:1017E00052BB4FF0FF340FF6B4200EE095F83A20CC
:1017F0006C2AF0D00868086050F8044B0860EC6070
:101800003CB94FF0FF340FF6782000F003FE201AA9
:1018100076BD2E6B002E04D5204600F01BFE04463C
:1018200008E032460021204600F03EFE002814BFAA
:10183000041B3446AC6117E0294600F092F80028FA
:1018400012D54FF0FF3076BD6869411C69612522D1
:10185000325409E06969481C6861252272542100EC
:1018600002D0431C6B613454002076BD2DE9F04159
:101870000E4605469046726B7069316AB46A121A58
:10188000B069521A716A121AF069521A121A96F84D
:101890003800141B41070DD4002C0BDD2746B0681F
:1018A0002021A8470028B06057D0F06A401C7F1E56
:1018B000F062F4D1736942463146284600F0B0FC2C
:1018C00000284AD1376A002F0ADDB0683021A847C6
:1018D0000028B06041D0F06A401C7F1EF062F4D155
:1018E000B369F2683146284600F09AFCA8BB776AD3
:1018F000002F09DDB0683021A847B06068B3F06AF6
:10190000401C7F1EF062F5D1F068B169F36942189E
:101910003146284600F084FCF8B9B76A002F09DD8B
:10192000B0683021A847B060B8B1F06A401C7F1E93
:10193000F062F5D196F8380041070BD5002C09DD8F
:10194000B0682021A847B06038B1F06A401C641E1E
:10195000F062F5D10020BDE8F0814FF0FF30BDE826
:10196000F0812DE9F8470D46A3B02F6B002F0646F6
:10197000904648BF6FF000470FF63C1400F0C0FDE2
:10198000D4E90023696B4018CDE90123812828BFE1
:101990004FF0FF3042D20024002F33DDD8F8001082
:1019A00001AA684600F006FD8146B9F1000F38D45F
:1019B000D8F8000010B9B9F1010932D44F4521DB44
:1019C0006869484481280AD30021696303AA29462B
:1019D0003046FFF74BFF040014D40020686103ABCE
:1019E000D5F814A04A46694603EB0A0000F092FDC0
:1019F000CA44C5F814A058F8040B002818BFA7EB78
:101A00000907C9D14CB903AA29463046FFF72EFF72
:101A1000044614B9002068616863204624B0BDE81C
:101A2000F0874FF0FF34F8E72DE9FC4707468C4676
:101A30003E69BCF16F0F08BF082405D04CF02000B0
:101A4000782814BF0A2410243C25D7E90023BCF1D0
:101A5000640F18BFBCF1690F9046994606D100216A
:101A60008B4203DAD8F1000869EB49094FF0000A0C
:101A7000D14508BFD0451FD1386BE8B9082C4BD1F0
:101A800097F83800010747D530203B2586F83B0002
:101A900042E000280ED597F8380000F01400102816
:101AA00008D17B6B7969386A5B1A1B1A9A1A002A6B
:101AB000C8BF3A62BDE8F3878DF800C0404649468A
:101AC0002246E31700F07AFD3032D0B26D1E3A287C
:101AD000019504DB9DF80000A0F151018A187255B0
:101AE000404649462246E31700F068FD8946804695
:101AF000D14508BFD04503D0F86871198842DDD3BD
:101B0000082C09D197F83800010705D5705D3028F9
:101B100002D06D1E30207055C5F13C02BA617119BA
:101B2000F960386B8242B4DA821A3A624FF6EF708B
:101B3000398F01403987BDE8F3872DE9D043064648
:101B40000F4614464FF00008DFF8389412E0E00723
:101B500007D542464B463046394600F047FE06461A
:101B60000F464046494642464B4600F03FFE641051
:101B700080468946002CEAD130463946BDE8D083FC
:101B80002DE9F34F054641F020048DB0D5E90089D9
:101B9000612C02AE09D0286B002848BF062003D470
:101BA00008BF672C01D101202863D5E90023580024
:101BB0004015401C0ED119030CD00320A8619DF8DC
:101BC000381061391A2902D20FF2F46111E00FF2D4
:101BD000F4610EE059004915491C0FD118030DD1CD
:101BE0000320A8619DF8381061391A2914D30FF227
:101BF000DC61E868032200F08DFCD3E1194621F096
:101C00000043B3F5801F10460DD20027BB4208BF2A
:101C1000BA42019703D111E00FF2AC61E9E701AAE2
:101C200000F0B6FE0AE0DFF8607307EB1352DFF84E
:101C30005C3301921940DFF858331943C5E90001BC
:101C4000612C0ED1E86830210170821CEA609DF899
:101C5000381061290CBF7821582141706869801CB7
:101C60006861D5E900AB2BF0004300202AF00002A8
:101C7000834204BF8242002300F05B81612C40F06C
:101C8000AA80286B002847BF21210091401C0090AA
:101C9000009F7F1C404649460022002300F0B0FE12
:101CA000D94601998DF8082038BF89F00049091FED
:101CB000002FD04601910DF1090040F34981B3494D
:101CC000DFF8D0B20C910646404649460022002378
:101CD00000F0AEFE80F03B814800400D00F11C0298
:101CE00011D0002A0FDD40F2FF70824205DB09F0BF
:101CF000004040EA0B01002013E00C98014041EA4B
:101D0000025140460DE029F00043002028F0000277
:101D1000834208BF82420FBF40461C22404600F06B
:101D20009FFE8046894600F039FFFF1F002F0446C2
:101D300009DD00F051FF02460B464046494600F0DF
:101D40005DFF80468946F01D072104E004F00F0284
:101D500000F8012D2411002C01DD491EF6D5491E85
:101D60005CBF002200F8012DF9D5ECE000201946F7
:101D700002AA0A4400E05B1E12F80149491E84428F
:101D8000F9D00F2804D10DF10900425C521C4254D5
:101D9000002904D50198001D02AE5B1C0190591E5C
:101DA00012D49DF838007218A0F13A07147804F1A3
:101DB00030085FFA88F43A2CA8BFB844491E02F8EC
:101DC0000189F3D58DF83800286B002840F1B080E8
:101DD000591E2963ACE0404649460022002300F02A
:101DE0000FFE019938BF89F0004947F297504143EF
:101DF000694A91FBF2F20192D2F1070204DD4046FA
:101E00004946FFF79AFE0AE0524200206349FFF775
:101E100094FE02460B464046494600F061FF80466C
:101E2000662C286BDFF878B106BF019F0A370627BA
:101E30003F18142FC8BF142730208DF8080089469A
:101E40000DF1090000E03046002F34DD0646404623
:101E5000494601F069F801460A4606F108030420E4
:101E60000A26B2FBF6F606EB860EA2EB4E023032E5
:101E700003F8012C0A22B6FBF2F202EB820EA6EB6B
:101E80004E063036401E03F8026DE9D1083F002FA0
:101E900003F10806D7DD084601F05AF802460B4662
:101EA0004046494600F0AAFE00225B4600F09EFC38
:101EB00080468946CBE70DF10901401A0DF109066C
:101EC00004E00199491E401E0191761C31783029A9
:101ED000F7D0662C02D10199491C03E0652C0CBF98
:101EE000012100212B6BCB189842B8BF431E002B59
:101EF0001ED4834204DAF05C3528A8BF392000DA0A
:101F000030201946721E02EB010800E05B1E18F833
:101F10000199491E8145F9D0392802D1705C401CD5
:101F20007054002904D50198401C16465B1C019092
:101F3000019800B200901BB29DF838103246284636
:101F400000F034F82EE0C61D002F3FF7BDAE30463E
:101F50000DF10901401A009903468842C8BF0B469B
:101F6000002B0DF109063FF52FAF8342BFF6FEAE01
:101F70000DF10900C15C07297FF7F8AE0F20F6E6E6
:101F8000CBCCCC0C0000244002FCFFFFFFFF0F80F5
:101F90000000E03F0000F07FA08601000000F03F5D
:101FA00084D797410FB0BDE8F08F00002DE9F847C6
:101FB00083B006468A461746984600F0FDF9B8F108
:101FC000000F406A356B90F8009002DC4FF001087A
:101FD000BFA74AF02000BDF93040662808BF641C46
:101FE00015D0672840F0848014F1040FC0F2868079
:101FF000AC4280F2838096F83800641C010702D45A
:10200000A845B8BF454620B22D1A48BF00250FFA93
:1020100084FAF068B169BAF1000F25DC4A1C30235C
:102020004354002D03DC96F83800010703D5F0680F
:1020300000F80290521C15EB0A0FB8BF6C4220B298
:10204000441941424445B8BFA046B26171620FFADB
:1020500088F5F561F068B3692A463946184400F0FE
:1020600059FA641BB462C4E022B29045084417DAFE
:102070004246394600F04EFAB0694044B061AAEBDE
:102080000801002D716203DC96F838100A0705D5A7
:10209000F16801F80090F069401CF061B562A8E0B9
:1020A000394600F037FAB069002D5044A8EB040817
:1020B00003DC96F838100A0703D5F16801F80090A0
:1020C000401CB0610FFA88F08542F368B069B8BF70
:1020D000A8460FFA88F207EB0A01184400F01AFA32
:1020E000B1690FFA88F00144B161281A706280E08A
:1020F000BAF1610F14D14FF0700A16E0A84504DA66
:1021000096F838100A0758BF45466D1E48BF00258F
:10211000BAF1670F14BF4FF0450A4FF0650A04E0AB
:10212000BAF1410F08BF4FF0500AB169F368481C7B
:10213000B061002D17F8012B5A5403DC96F83810C3
:102140000A071BD5F168431CB36101F80090002D0C
:1021500014DDA8F101080FFA88F039468542F768C6
:10216000B8BFA8460FFA88F2F81800F0D3F9B069A2
:102170000FFA88F108446D1AB0617562F068B169B0
:102180000844002C80F800A003D42B224270811C4C
:1021900003E02D2141706442811C00206A460AE060
:1021A00023460A2493FBF4F404EB8405A3EB4503D4
:1021B00002F8013B401C24B2002CF1DC012806DCB3
:1021C0004AF02002652A04BF302201F8012B48B9E9
:1021D000302001F8010B07E0401E1DF800303033BD
:1021E00001F8013B0028F7DCF268B0691044091AD5
:1021F000F16196F8380000F0140010280DD17269D2
:10220000B169706A8A18F1698218B06A8A188218EE
:10221000706B8242BCBF821A326204B0BDE8F087A4
:10222000F8B505460E4617461C46002074B117F84F
:10223000011BB068A847B06030B1F06A401CF06282
:102240000020641EF3D1F2BD4FF0FF30F2BD00005C
:102250007072696E74665F733A20256E20646973CC
:10226000616C6C6F776564007072696E74663A2099
:1022700062616420256E20617267756D656E740001
:102280007072696E74665F733A20626164202573B0
:1022900020617267756D656E740000007072696E02
:1022A00074665F733A2062616420256C73206172EA
:1022B00067756D656E74000000000000000000008E
:1022C0006E616E004E414E00696E6600494E4600DA
:1022D0003000F0B40246106895681318506803EB9C
:1022E0005004C0071DD54D441BE013F8017B05F8D1
:1022F000017B491EF9D1A0B1B60813F8011B06F005
:102300000306032E08BF13F8016B01EB06214942B7
:10231000801C294405D011F8016B05F8016B401EA3
:10232000F9D1A3420ED013F8016B16F0030104BFDC
:1023300013F8011BC91C30090F28DAD113F8010B5F
:102340000F30D6E7F0BC02F10C0070471B48704715
:1023500070B45368D418042B09DA41B1057804F835
:10236000015B10F8016B16B15B1C491EF3E753606B
:1023700070BC704738B514461D4661B1FFF7E8FFE1
:1023800061686A6B204690476FF00102811A02D0A3
:10239000491E01D001E003E005E00021616032BD8B
:1023A0006FF0010032BD4FF0FF3032BDDA6B1047E5
:1023B000024BDFE7014BF9E7014870475800002066
:1023C000200000200278C9B28A421AB11CBF10F85E
:1023D000012FF9E718BF0020704730B4002513E043
:1023E00050F8042BD30744BFA9F101039A18091F21
:1023F000042942F8045BFAD213468C0744BF1580C7
:102400009B1CC90748BF1D7050F8041B0029E7D169
:1024100030BC704780B500B906A005490B681BB1F8
:1024200022220021984701E000F09FFD222002BDFA
:102430005C020020636F6E73747261696E74206851
:10244000616E646C65723A20626164206D657373BD
:102450006167650000F10103810704D010F8011BDA
:10246000820781B1FAD10268A2F10131914311F0E2
:10247000803104BF50F8042FF6E709BAB1FA81F1B0
:1024800000EBD100401CC01A7047B1F5807F02D329
:102490004FF0FF3070470170012070470078401EF8
:1024A0008041C043C00F7047C9B2830706D0521E97
:1024B00022D310F8013B9942F7D11FE0083A13D319
:1024C00002F1040241EA012141EA014150F8043BD2
:1024D000121F21BF4B40A3F1013C2CEA030C1CF05E
:1024E000803FF3D0C9B2001F083210F8013B521EE2
:1024F00028BF91EA030FF8D818BF0120401E70478B
:1025000080B5FFF723FF006C02BD0268531C036017
:102510001170704762B38B0708D0521E11F8013B4F
:1025200000F8013B00F024808B07F6D1830740F0D0
:10253000208000BF103A07D330B4B1E83810103A09
:10254000A0E83810F9D230BC530724BFB1E8081016
:10255000A0E8081044BF51F8043B40F8043BD20700
:1025600024BF31F8022B20F8022B44BF0B780370F4
:102570007047121F17D35B0009D151F8043B20F8B4
:10258000023B1B0C121F20F8023BF6D20BE051F865
:10259000043B00F8013B1B0A20F8023B1B0C121FF6
:1025A00000F8013BF3D238BF121D521E24BF11F8B0
:1025B000013B00F8013BF8D870470000BBBBE1B11C
:1025C000B2F5803F80F07E80022A1ED98C46B1FB96
:1025D000F2F102FB11C31B0443EA1043B3FBF2FC0C
:1025E00002FB1C3380B240EA0343B3FBF2F002FB70
:1025F000103240EA0C4000237047022A05D9844675
:10260000B0FBF2F002FB10C270474AB105D100F0F6
:10261000010249085FEA300070470022002370473A
:1026200000F0A6BC0B000200002100207047904281
:1026300071EB030CF6D3B3F5803F2FD2F0B5B3FAAC
:1026400083F7B1FA81F4A7F10F0E3D1B5340CEF191
:10265000200602FA0EF2F3415340B5F10F0746D8B7
:102660000F3C2C444140C4F12006A040F1414140C0
:10267000B1FBF3F603FB1611A2FB0645001BA941B3
:1026800002D2761E8018594180EA010221FA0EF327
:1026900062FA0EF200215A403046F0BD30B4B1FB70
:1026A000F3FC03FB1C11A2FB0C45001BA94103D248
:1026B000ACF1010C8018594130BC02460B46604613
:1026C00000217047B2F1807F65D3F0B5B2FA82F78E
:1026D000B1FA81F4C7F10F063D1B22FA06F307F1A8
:1026E000110EF24120355A40B5F10F07B8D94140DB
:1026F000C4F12006A040F1414140B1FBF3FC03FBD3
:102700001C11A2FB0C45001BA94103D2BCF1010C1A
:10271000801859410F2F12D30F3FC90341EA50418E
:10272000B1FBF3F603FB1611A2FB0645D4EBC03058
:10273000A94102D2761E8018594146EACC3C07B323
:102740004140C7F12006B840F1414140B1FBF3F6EA
:1027500003FB1611A2FB0645001BA94102D2761EFF
:102760008018594180EA010221FA0EF3C7F12004D2
:1027700062FA0EF20CFA07F05A402CFA04F13043D8
:10278000F0BD80EA010221FA0EF3002162FA0EF296
:1027900060465A40F0BD8C46B1FBF2F102FB11C31A
:1027A0001B0243EA1063B3FBF2FC02FB1C331B0267
:1027B0004CEA002043EA1063B3FBF2FC02FB1C333B
:1027C0001B024CEA002043EA1063B3FBF2FC02FB5D
:1027D0001C331B024CEA002043EA1063B3FBF2FCFB
:1027E00002FB1C324CEA002000237047B0B581EA9E
:1027F000030C0CF0004C40F2FF7515EA11541DBF9C
:1028000015EA1357AC42AF4239E0E41923EA4553C5
:1028100043F48013C90241F0004141EA505EC7020F
:102820001100A7FB020200284FF00000EEFB012080
:102830004FF00001E3FB072118BF42F001024018EE
:1028400000214941E3FB0E01A4F580640F0302D28D
:1028500052004041494154F101046CDD470872F1D6
:10286000004250F1000051EB0451A1F580115CBF12
:1028700041EA0C01B0BD4CEA05510020B0BD05EAAB
:102880001357AC4214BFAF4241E050EA410E1CBFA7
:1028900052EA430E02E061460020B0BD24423C44AF
:1028A0001BD15FEA070EF6D0090302BF01460020E4
:1028B000AEF1140EB1FA81F7AEEB070401FA07FE90
:1028C0000C37C7F1200100FA07F7C8404EEA000EA6
:1028D00023EA455343F48013A2E733F00043B3FAED
:1028E00083F704BFB2FA82FE77440B3FE41BB7F1D3
:1028F000200E2FBF02FA0EF3BB40C7F1200E22FAC2
:102900000EFE38BF43EA0E03BA40641C82E750EA69
:10291000410E14BF52EA430E6FF000014FF400174E
:1029200017EB430F8ABF194617EB410FB5E74CEA87
:1029300005510020B0BDD4F10104B4F120070FDA35
:10294000C4F12007520828BF42F0010210FA07F52F
:1029500001FA07F7E1BF2A43E0403843E1400FE0C6
:10296000352C98DCC7F1200452EA400220FA07F225
:1029700018BF42F0010231FA07F0A1400A430021DA
:1029800072F1004250F1000051EB0C01B0BD0000AB
:1029900010B5144600F002F8226010BDC1F30A53CE
:1029A00043B14A0012F5001F28D2A3F2FE32A1EB78
:1029B0000251704750EA410C20D001F0004C31EA3E
:1029C0000C01B1FA81F204BFB0FA80F3D2180B3ACD
:1029D000B2F120032CBF00FA03F1914041EA0C014F
:1029E0003EBFC2F1200C20FA0CF319439040524232
:1029F00040F2FD33D21A01EB0351704700227047B9
:102A00004FF4001C1CEB410F94BF1CEB430F09E07B
:102A100041EA030C50EA4C0C52EA0C0C03D29942E6
:102A200008BF9042704714BF8B428242704700003B
:102A30004FF4001C1CEB410F94BF1CEB430F09E04B
:102A400041EA030C50EA4C0C52EA0C0C03D28B42C4
:102A500008BF8242704714BF9942904270470000FD
:102A6000124254D440F2FF7C1CEA11530FD063454C
:102A700031D09B1863453CBF01EB0251704701F018
:102A8000004141EA0C510020AFF30080704750EA4A
:102A9000410320D001F0004C91EA0C011CD0B1FAA6
:102AA00081F30B3B9A420DD9D21A994051EA0C019D
:102AB000C3F1200C20FA0CFC61449840531C40F2F6
:102AC000FF7CD7E7914041EA0C01C2F1200C20FACB
:102AD0000CF3194390407047B0FA80F31533202B64
:102AE000E0D3202AEED3203A203B9A4209D9D21AC9
:102AF00000FA03F141EA0C010020531C40F2FF7C74
:102B0000B8E700FA02F141EA0C0100207047524296
:102B100040F2FF7C1CEA11530DD06345DBD0B2EBD1
:102B2000030C3CBFA1EB025170470CF1010221EAFA
:102B3000035141F4801150EA410CCCD001F0004C1B
:102B4000352A27DC30B481EA0C01B2F1200309DA1E
:102B5000C2F12003044601FA03F5D0402843D140D6
:102B60009C400CE0C3F12002450020FA03F418BF9A
:102B700044F0010421FA03F091400C43002174F168
:102B8000004550F1000051EB0C01244230BC7FF4B1
:102B90007BAF70476146002076E70000C1F30A531F
:102BA00040F2FE329B1A14DDD3F120034FEAE172AA
:102BB00008DDC90241EA505141F00040D840801878
:102BC0005040704703F2E13010B1D24382F0004030
:102BD0007047002070470000C11768B14840401A94
:102BE000B0FA80F29040D21CC907C2F5846241EA73
:102BF000025202EBD02140057047000070B44FF044
:102C0000004591EA030F40F1BD816B40841A71EBDE
:102C1000030603D2001BB141121973414FF4001C8B
:102C20001CEB410F34BF7CEB430442E00C0DA4EBE2
:102C30001356352E4FDC45EAC323DB0A45EAC12192
:102C4000C912B6F120050DDD63FA05F6EB4086EA00
:102C50000305124218BF45F00105C01851F10001EB
:102C60000CD213E062FA06F5F2405540F3415A40A7
:102C7000B340F3405A408018594107D349085FEAEE
:102C800030005FEA350528BF45F0010501F58011E8
:102C9000420875F1004250F1000041EB04514E0032
:102CA00016F5001F70BC38BF70470020090D0905DC
:102CB00070471CEB410F10D252EA43060BD0BCEB1D
:102CC000410F05D80C0DAB43661E342EB6DD02E075
:102CD000AB438018594170BC704770BC704700000E
:102CE000F0B540F2FF7581EA030C0CF0004C15EAD8
:102CF00011541DBF15EA1357AC42AF42E5E0BC4189
:102D0000C1F31301C3F31303801A994143F48013F1
:102D100004D2641E4000494180185941C90241EA69
:102D20005051B1FBF3F603FB1611A2FB0675D7EB6E
:102D3000C020A94102D2761E80185941C90241EA39
:102D40005051B1FBF3FE03FB1E11A2FB0E75D7EB36
:102D5000C020A94103D2AEF1010E80185941890269
:102D600041EA9051760546EA8E2EB1FBF3F603FB5D
:102D70001611A2FB0675D7EB8020A94102D2761E60
:102D800080185941C90241EA50514EEA060EB1FB82
:102D9000F3F603FB1611A2FB0675D7EBC020A94181
:102DA00002D2761E80185941C90241EA5051B1FB46
:102DB000F3F703FB1711A2FB0735D3EBC020A941A2
:102DC00067F100070CBF004247F0010766F3D52703
:102DD0004FEA1E31B80814F5806412DDBD0775F1A5
:102DE000004250EB0E5051EB045111F5801F5CBFB7
:102DF00041EA0C01F0BD4CF07F6141F0E041002060
:102E0000F0BDBD076D0840EA0E5041F48011D4F1C9
:102E10000104B4F120060ADAC4F120060200E04001
:102E200001FA06F3E1401843B24015430EE0342C9A
:102E300013DCC6F1200445EA40056D0820FA06F2CD
:102E4000154321FA06F0A1400D43002175F100421F
:102E500050F1000051EB0C01F0BD00205FEA0C01C5
:102E6000F0BDCFB992185B41B3FA83F704BFB2FA51
:102E700082F6BF190B3FB7F120062FBF02FA06F307
:102E8000BB40C7F1200622FA06F638BF3343BA40EA
:102E90001CB1E419641E33E77F4231F00041B1FAFE
:102EA00081F404BFB0FA80F6A4190B3CB4F12006FB
:102EB0002FBF00FA06F1A140C4F1200620FA06F661
:102EC00038BF3143A0403C1B1AE7AC421ABF05EAA9
:102ED0001357AF4212E050EA41061CBF52EA4306C4
:102EE000BFE750EA4107304661461CBF41EA055141
:102EF000F0BD52EA430C08BFC143F0BD00204FF4BF
:102F0000001616EB410F98BF16EB430F08BF16EBE8
:102F1000410F24BFC14305E016EB430F0CBF6146D0
:102F20004CEA0551F0BD0000400D491840EA8120EF
:102F30000CD2490DA1F58061491C40F0004005DB31
:102F4000D1F11F0154BFC840C0177047002070471F
:102F5000014648B1B0FA80F18840C91CC1F58461CE
:102F6000090501EBD02140057047012000F0C0B8F1
:102F70007047000070B44FF0004591EA030F7FF5F1
:102F800045AE6B40841A71EB030604D26E40001B01
:102F9000B141121973414FF4001C1CEB410F34BFB7
:102FA0007CEB430683E00C0DA4EB1356362E00F3A6
:102FB0007C80012E45EAC32341DC43EA525312BF11
:102FC000D20292025B08240545EAC12141EA505130
:102FD000D2EBC020994125D407D1B0FA80F610FA7F
:102FE00006F162D00020203608E0B1FA81F6B14047
:102FF000C6F1200220FA02F21143B0404FEAF47405
:10300000B4EB465434F001064FEA74040AD8D6F5FE
:103010000016760D04F00044F04061FA06F25040CC
:10302000F1404840C00A40EA415021F0004128BF29
:103030005FEA500550F1000044EBD12135E0DB0A96
:1030400045EAC121C90AB6F120050EDD42EA024275
:10305000120CC5F1200603FA06F6EB4042EA06051B
:103060006D42984161F100010DE062FA06F5F2400F
:10307000554063FA06FC82EA0C02F3405A406D4266
:10308000904161EB030111F4801F05D1641E6205BC
:1030900002D06D004041494121F48011430875F18F
:1030A000004350F1000041EB045170BC70471CEB31
:1030B000410F15D223F0004352EA43060BD04FEAEA
:1030C0004C0CBCEB410F04D80C0D661E342EB7DD42
:1030D000EBE7801A994150EA410608BF0021E4E776
:1030E00008BF1CEB430F28BF6FF00001DDE70000B5
:1030F00080B5AFF30080024A11001820ABBEFBE799
:103100002600020070B5DFF8B4452DED028B0122D8
:1031100000F003FB01224FF4805100F000FBDFF8C8
:10312000A05501221021284600F060FC00F09BF918
:10313000DFF89065304600F073FC1421304600F053
:10314000FDFC0121304600F057FDFFF701FF00F0C4
:103150003CF89FEDB98B00F034F8FFF7E5FEB06462
:103160000221304600F048FDFFF7F2FE00F02DF896
:1031700000F027F8FFF7D8FEF0640321304600F096
:103180003BFDFFF7E5FE00F020F800F01AF8FFF72E
:10319000CBFE3065304600F0B4FC642000F016FE33
:1031A000002200F0BAFA00224FF4805100F0B7FA82
:1031B000BDEC028B2846BDE870400022102100F0D3
:1031C00015BC53EC182BFFF7D5BEDFF8FC24DFF855
:1031D000FC34FFF785BD2DE9F04F87B000F00AFE03
:1031E00000F04FF900F0F1F9DFF8E414DFF8E464DF
:1031F00071604FF48051B1624FF0204000220121F4
:103200003060B260F2603261B261326200911020CF
:103210000F220921706101920291002010211122D8
:10322000F0617062F06230637063B0637064039049
:1032300004910592069000226946304600F0F4FDA4
:1032400000B1FEE700F073F9DFF88C0430650C2163
:103250000020B065F0653066B066F0664FF4E13589
:103260007166756506F1500000F008FE00B1FEE7DA
:1032700006F19004DFF86404206000210C206061F6
:10328000A160E1602161A161E1616560204600F01B
:10329000F5FD00B1FEE7012242F20801DFF81C044F
:1032A0000FF2CC470FF2645A0FF24C580FF210593C
:1032B000DFF82CB400F09AFB00F06AFF002001F068
:1032C0001DF8606406F1D8051F2001F054F81F2096
:1032D00001F045F84FF6FF7001F039F801F047F8BA
:1032E0000FF2404100F0B6F800F0BDF801F00EF822
:1032F00000F0B9F84FF4FC6001F03DF84FF4FC60C9
:1033000001F02DF81F2001F022F801F030F80FF243
:103310002C4100F09FF80FF2384100F0A9F850233B
:103320001C2200F0AAF800F0A2F800F0A4F80FF2B6
:10333000584100F09DF800F09EF800F098F800F079
:103340009AF80FF25C41DF4F00F092F850231E22F2
:1033500000F093F801F0EFF806F58E7600F075F8BE
:1033600038B92D2000F032FD00F06FF808B901F0F7
:10337000E2F800F065F80028F0D12D2000F026FDDD
:1033800000F05EF80028E9D101F0BAF82064FFF7F8
:10339000B9FE386D226C01902846F96C00914946BF
:1033A000BB6C01F0EFF85023372200F066F84FF4C1
:1033B000FC6000F0E0FF4146304601F0E3F800F029
:1033C000D6FF3146C08801F03EF8226C514600F02D
:1033D00047F800F0CCFF314600F03CF8BA6C0FF231
:1033E000384100F03DF800F0C2FF3146C08880044B
:1033F000000C01F028F8FA6C0FF2284100F030F8C8
:1034000000F0B5FF3146C08800EB800080B201F0CB
:103410001AF83A6D0FF2184100F022F800F0A7FFF9
:103420000622C08810FB02F0314680B201F00BF892
:103430000020206492E700000000000000005940D6
:103440004FF40041584600F0CBBA4FF48071584613
:1034500000F0C6BAC08800EB400080B200F0F3BFB5
:10346000304601F08FB84FF47A7000F0AFBC3946A7
:10347000284601F087B8502316222946204600F03E
:1034800038BD80B592B0002000904FF4803395484D
:10349000016841F0805101600021006800F0805017
:1034A0000090009890480091026842F480420260C7
:1034B0000122006800F48040009006A8009906925E
:1034C00002214FF480020C910D920421A8220E914A
:1034D0000F920221042207931091119201F072F8C9
:1034E00000B1FEE702210291002203920F204FF467
:1034F000A051019004914FF480520592052101A83A
:1035000001F0DCF900B1FEE701F05DFA4FF47A71E9
:10351000B0FBF1F001F0DFFA042001F0F0FA002234
:1035200000214FF0FF3001F0B9FA13B000BD6F4831
:1035300018B5644C2060012020614FF480316C4844
:10354000A06200220120E06160616160A260A2616E
:103550002262E262E26022638DB0204601F0EAFA64
:1035600000B1FEE70320012109900A9100220B928D
:1035700009A9204601F006FB00B1FEE701210191F7
:1035800003200021029100900490002259490791E4
:10359000089206920592039200F013F800B1FEE73C
:1035A00004210091022200F00BF800B1FEE7052192
:1035B0000091032200F004F800B1FEE70EB010BD48
:1035C00001926946204600F031BBF8B586B0002074
:1035D000059043F608064848394F0168374C474D77
:1035E00041F010010160026802F010020592002211
:1035F00005990592036843F080030360016801F0B8
:10360000800100F07DF843F001030360016801F0E0
:10361000010100F075F843F008030360016801F050
:10362000080100F06DF843F004030360016801F045
:1036300004010591059905921021036843F00203E6
:103640000360006800F0020005903846059B00F01A
:10365000CDF90022314600F062F800220821284608
:1036600000F0C4F9102100F050F8384600F0E6F8F8
:1036700001210191002202920392009669462046A0
:1036800000F0DCF84FF4014000210090019102911C
:103690006946134800F0D2F8082100F036F82846B1
:1036A00000F0CCF8102000210090019102912846F2
:1036B000694600F0C3F807B0F0BD0000000C0240FE
:1036C00000100240000200209A9999999999F53FBB
:1036D000040100A0A0000020004C004000140140A4
:1036E00000000240403802400070004000200140CD
:1036F0000100000F01000F003038024000040240BA
:1037000005910599059203687047009101220021F7
:10371000029103910192694670474FF4006120467F
:1037200000F064B9202020202053544D3332463419
:103730007878202020202020000000002020202059
:10374000205A414B415A2E55412020202020200054
:103750002D2D2D2D2D2D2D2D2D2D2D2D2D2D2D2D99
:103760002D2D2D2D2D2D2D2D2D2D0D0A0000000080
:103770003D3D3D3D3D3D3D3D3D3D3D3D3D3D3D3D79
:103780003D3D3D3D0D0A00005F5F2D3D3D535441E1
:10379000525420574F524B3D3D2D5F5F0D0A0000A4
:1037A0002D2D2D2D2D2D2D2D2D2D2D2D2D2D2D2D49
:1037B0002D2D2D2D2D2D2D2D2D2D0D0A0D0A000019
:1037C0005765696768743A2025643B0D0A204C658B
:1037D0006E6774683A2025643B0D0A20576964744B
:1037E000683A2025643B0D0A204865696768743A89
:1037F0002025640D0A0D0A0050726F6475637420F1
:103800002320303030303435383700005765696751
:1038100068743A2025643B004C656E6774683A20F2
:1038200025643B0057696474683A2025643B0000B6
:103830004865696768743A2025642E002DE9F847C9
:1038400002460B4600246B480F2101271D68A74044
:1038500007EA0508B84540F0BD805D68022D18BF35
:10386000122D4FEA840911D1E50802EB850C09F00D
:103870001C05DCF820E0D3F810A001FA05F62EEACA
:1038800006060AFA05F53543CCF820504FEA440CF9
:103890000326156806FA0CF66FEA060E1E7906F086
:1038A00003060EEA050506FA0CF6354315605D6859
:1038B000012D18BF022D03D0112D18BF122D10D1CC
:1038C0009568DE680EEA050506FA0CF63543956044
:1038D000556825EA07075D68C5F30015A5402F4325
:1038E0005760D7680EEA07059F6807FA0CF635435C
:1038F000D5605D68EF006DD50025009509F00C09D5
:1039000007683D4E47F48047076001FA09FE0568E5
:1039100005F480450095009FA70856F8275025EA32
:103920000E0E364DAA4208BF002522D0344DAA42C1
:1039300008BF01251DD0334DAA4208BF022518D06B
:10394000314DAA4208BF032513D0304DAA4208BF0B
:1039500004250ED02E4DAA4208BF052509D02D4DB5
:10396000AA4208BF062504D02B4DAA420CBF07254A
:10397000082505FA09F545EA0E0546F827506FEACD
:103980000807264E356807EA050C5D68ED0348BF59
:1039900048EA0C0CC6F800C0756807EA050C5D68BB
:1039A000AD0348BF48EA0C0CC6F804C0B56807EA86
:1039B000050C5D68ED0248BF48EA0C0CC6F808C06B
:1039C000F56807EA050C5F68BD0248BF48EA0C0CC1
:1039D000C6F80CC0641C0F2C7FF637AFBDE8F1872A
:1039E0000069084018BF0120C0B2704702B909043D
:1039F00081617047443802400838014000000240AD
:103A00000004024000080240000C02400010024086
:103A10000014024000180240001C0240003C01401B
:103A200078B500F038F801D1022072BD00F04AF8F4
:103A30001DD500F01EF858BF986018706FF0040193
:103A4000216000F020F80CD112F4401F4A6808BF32
:103A5000012060B150050AD48A6842F480028A606D
:103A600005E012F4401F08BF012000F01CF8002000
:103A700072BD5E68DFF838130E4046F480565E6013
:103A80005968CD0570471168DFF8282313688A68E4
:103A900013F01F0F70470246002002F13C03009014
:103AA000197801297047DFF810334A68994208D124
:103AB00038B1500505D4DFF80403016841F48001F2
:103AC000016070470121197011688C68E50714D4F2
:103AD0008C68DFF8EC5244F001048C60DFF8E412EB
:103AE0000C68B4FBF5F505EB4505009502E000997F
:103AF000491E009100990029F9D11468A168CD07E9
:103B0000704730B500F06BF801D1022030BD0123C1
:103B100013705468E3050ED403685C6865050AD425
:103B200000F063F8D80708D4536823F4885343F0AF
:103B30000103536001E000F04CF846E070B5054623
:103B40000C4601F03FF90646286801684A0710D480
:103B500014F1010FF8D024B101F034F9801B844234
:103B6000F2D205F13C0004214160002202700320E2
:103B700070BD6FF00C01016005F13C01486840F434
:103B8000005048602868826812F4401F1BD1826B85
:103B900012F4401F02D08268530514D442685305C2
:103BA00011D4806810F0405F04BFA86900280AD1D2
:103BB000486820F4805048604868C20503D44868CB
:103BC00040F001004860002070BD002010700846E1
:103BD00030BD506840F0200050600121704700F176
:103BE0003C0200211378012B70479C686408640034
:103BF0009C6000688368704781B000220092491E73
:103C000002686FF00400032910600CD8DFE801F0AF
:103C100009070502916C009105E0506C02E0106C00
:103C200000E0D06B0090009801B0704770B590F83C
:103C30003C20012A01D1022070BD012280F83C20E5
:103C400007240A6803680A2A12D30A3ADD6802EBDD
:103C50004202944025EA0404DC60DA680D688C684E
:103C6000A5F10A0606EB4606B4402243DA600FE0EF
:103C70001D6902EB420204FA02F225EA02021A610D
:103C80001A690D688C6805EB4505AC4022431A6142
:103C90001F259A6B22F440129A639A6B0C69641E7A
:103CA00042EA04529A639C6B4E680A6900F079F804
:103CB000AC439C639C6B4E680A690D8800F071F8F8
:103CC0002C439C63CA69404CA2429A6822F4702239
:103CD0009A600CD09C68CA6914439C609C6824F468
:103CE00040149C609C680A6A14439C6003E09A68D4
:103CF00022F440129A608A69002A5A6814BF42F47A
:103D0000806222F480625A604A69002A5A6814BFAD
:103D100042F4805222F480525A604A68012A04D048
:103D20001ED3032A13D009D31AE05C69240B2403A1
:103D30005C615C69CA6814435C6119E09A69120BA2
:103D400012039A619C69CA6814439C6110E0DA69A5
:103D5000120B1203DA61DC69CA681443DC6107E004
:103D60001A6A120B12031A621C6ACA6814431C6294
:103D7000114CA34210D10B680E4A122B03D11468C8
:103D800044F4800414600968102918BF112903D174
:103D9000116841F400011160002280F83C200020ED
:103DA00070BDF61CB61A06EB8606B54070470000DB
:103DB000FEDFFFFF042301400020014008200140F6
:103DC00040420F001C00002001000F0038B50446DF
:103DD00000F0F8FF14F1010F054602D00448017805
:103DE000641800F0EFFF401BA042FAD331BD00BFC2
:103DF0001000002080B50B48016841F4007101609B
:103E0000026842F480620260016841F480710160DE
:103E1000032000F036FE002000F0DAFF00F0F8FF8B
:103E2000002002BD003C024070B504000D4616465D
:103E300001D1012070BD04F14801487820B9002269
:103E40000A70204601F08BF8206804F1080101F0A7
:103E5000D1F8A2682068294601F0F4F8236BA26823
:103E60006068314601F00EF92168A06851F8202001
:103E700042F0010241F82020002070BD38B5040056
:103E800001D1012032BD00F021F808B900F022F87C
:103E900000F012F800F023F8FFE7416100F001F8AC
:103EA00032BD2068C16841F40051C16000206860E3
:103EB00020216970A9707047242068702068C1684B
:103EC00021F40051C160204600F09FB804F138058C
:103ED0006878704700212970204600F0FCBF2068F8
:103EE000016921F4904101612068416921F02A01B2
:103EF00070472DE9F843054605F138070C467878F8
:103F00002028164698463DD1002C14BF002E0120D3
:103F100039D03878012835D00121397000207860F7
:103F200021227A7000F04EFFAE848146EE8403E0D9
:103F3000296814F8010B4860E88C30B3E88C411E06
:103F4000E9844B46A868CDF80080B0F5805F0DD1BC
:103F500000F025F870B920882968C0F3080048608F
:103F60002869002814BF641CA41CE5E700F017F8BA
:103F70000028DDD0032006E0202078700021397071
:103F8000002000E00220BDE8F283CDF800804B461F
:103F90000022402100F005F80028EDD0EAE70022D9
:103FA00080212846FFE72DE9F041069C05460E4694
:103FB00090461F46286801683140B1420CBF01207D
:103FC0000020404517D114F1010FF3D024B100F0C7
:103FD000F9FEC01B8442EDD22868C16821F4D0717B
:103FE00000F00CF805F138002021417081700021AB
:103FF0000170032000E00020BDE8F081C160286866
:10400000416949084900416170472DE9F04704467C
:10401000642522681169E06821F44051014311616F
:104020001926D3684848A168034020690B43616999
:104030000343E0690B430343D3605169A06921F452
:10404000407101435161E36940484149B3F5004F74
:104050003BD18A4218BF82420ED100F0BFFC074616
:1040600000F0BCFC804600F0B9FC814600F0B6FCD4
:10407000824600F0B3FC0DE000F0A8FC074600F01B
:10408000A5FC804600F0A2FC814600F09FFC824621
:1040900000F09CFC6168490000F06BF8AE46BCFB88
:1040A000FEFE05FB1E77FF0032376423B7FBF3F3F8
:1040B0005B0003F4F87300F04DF8ED003235642036
:1040C000B5FBF0F000F0070039E08A4218BF8242E9
:1040D0000ED100F083FC074600F080FC804600F023
:1040E0007DFC814600F07AFC824600F077FC0DE012
:1040F00000F06CFC074600F069FC804600F066FCAE
:10410000814600F063FC824600F060FC6168890033
:1041100000F02FF8AE46BCFBFEFE05FB1E773F010C
:1041200032376423B7FBF3F303F0F00300F012F827
:104130002D0132356420B5FBF0F000F00F0021684E
:10414000C3188B60BDE8F087F369FFFF00140140DE
:104150000010014003EB021306FB0AF74643B7FBCE
:10416000F1F2B6FBF1F06421B0FBF1F105FB112592
:1041700070477743B7FBF1F36422B3FBF2F206FB1F
:1041800008F3B3FBF1F706FB09F3B3FBF1FC70474F
:1041900038B5DFF8E04200F0A1F8052000F072F930
:1041A000002200F09CF80A2000F06CF900F096F86C
:1041B0004FF0C0441020DFF8C05220800121298038
:1041C0001E222280B22028802823238006212980D5
:1041D0000022228001202880208043F2EF012980E4
:1041E000022222804FF4C060288010232380002107
:1041F0002980052000F046F91120208046F6300184
:1042000029801222228040F699132B8026202080BC
:104210004FF4605129800722228033232B800C2009
:104220002080052129803022228000232B8031200C
:10423000208040F2033129803222228040F207435D
:104240002B8033202080342140F2013028802180CF
:1042500028803522228040F20340288036232380A4
:1042600040F207712980372222804FF48060288035
:104270003A2323804FF4206129803B2222804FF48F
:10428000805028800D2323800A2129800E2222803D
:104290004FF438502880442323804FF46F41298005
:1042A00045222280002028804623238040F23F11AF
:1042B00029804E22228028804F23238000212980BC
:1042C0002222228028804FF49630401E2980FCD183
:1042D000DFF8A80100F10801416031BD0122082189
:1042E0002046FFF783BB4FF0C0424E231380DFF818
:1042F000883118804F201080198070474FF0C041DE
:104300000880FFE7DFF870010088704780B5002162
:104310001020FFF7E8FF00F03EF80020DFF858110A
:104320004FF478424FF4FC63401CB0F5C84F0A804C
:10433000FAD3B0F5484F3EBF1F220A80401CF8D385
:1043400001E00B80401CB0F5963FFAD301BD01B4EB
:10435000BDF80000DFF82411088001B0704701B4F7
:10436000BDF80000DFF81411488001B07047DFF895
:104370000C014068704710B5044600210020FFF78B
:10438000B2FF00F008F8DFF8F800DFF8EC10401E8C
:104390000C80FCD110BD4FF0C0402221018070473D
:1043A0002DE9F84F89460646904631464846FFF7C4
:1043B0009AFF0025DFF8C070DFF8C0400EE00C2A3D
:1043C0002FDD608838800EF1010E11E0BDE8F18F1D
:1043D000761CB1B24846FFF786FF6D1C6168C8883D
:1043E0008542F3D24FF0C04322221A804FF0000ED4
:1043F0008A889645ECD24FF00C0A92FBFAFA80209C
:104400004FEACA0B38F8153000FA0BF040FA0EF0FC
:10441000034201D10C2AD4DD012000FA0EF0034240
:10442000CDD022883A80CEE738B5DFF850305B68CF
:104430001C68DB88A2F12005EDB25D4304EB450268
:10444000BDE83840ACE7F8B504460D460026DFF875
:104450002C70287860B115F8012BB1B22046FFF717
:10446000E3FF786881888E19B1B2B1F5A07FF0DBE7
:10447000F1BD0000000C02400000106000000020B0
:10448000D033010001B481B00020009042F21070DE
:1044900001994143009102E00098401E009000986D
:1044A0000028F9D102B0704770B5314E00F023F802
:1044B000002510213046FFF793FA0028F9D118247F
:1044C000012200F019F800F016F810213046FFF72D
:1044D00087FA6D0000B16D1C641EF1D1012200F05D
:1044E0000BF80120FFF772FC00F005F80120FFF740
:1044F0006DFC284670BD002208213046FFF776BAD1
:1045000038B500250A24FFF7CFFF4519641EFAD1FC
:10451000184A194C11680A20B5FBF0F0401AFEF752
:1045200017FD164A164BFEF7DBFBFEF7FDFCA0421B
:1045300028BF002032BD70B50D4D00221021284645
:10454000FFF754FA0B4E002030600A24FFF7ACFF4F
:1045500031684118641E3160F8D10A20B1FBF0F0D7
:10456000306001222846BDE870401021FFF73EBAB6
:104570000004024054020020A1971900DA1B7C615C
:10458000325553400CB430B583B00A4606A90291A7
:10459000044600250194009502AB01A9084878441F
:1045A0001E30FCF7D9FE019A157000284EBF044654
:1045B0000198041B204603B030BC5DF80CFB00BF23
:1045C0004BDFFFFF2DE9F843040017D02078B74EEA
:1045D000C10745D5B06800F00C00042807D0B068CA
:1045E00000F00C0008280BD17068410208D5306833
:1045F000810335D56068002840F0BA80012053E17E
:104600006068B0F5803F04D1306840F4803030609D
:1046100011E0B0F5A02F306806D140F48020306062
:10462000316841F4803105E020F480303060316839
:1046300021F480213160606868B100F0C3FB054659
:104640003068810300F1948000F0BCFB401B6528BA
:10465000F6D3032028E100F0B5FB0546306881035E
:1046600040F1868000F0AEFB401B6528F6D3F0E7F2
:1046700000F0A8FB401B022840F2A780E9E7E068B1
:1046800070B10121396000F09DFB0546306881075B
:1046900000F1CB8000F096FB401B0228F6D9D8E74A
:1046A000386000F08FFB05463168880763D500F05D
:1046B00089FB401B0228F7D9CBE7086000F082FB9A
:1046C0000546706F810775D500F07CFB401B022802
:1046D000F7D9BEE70528306F06D140F004003067F7
:1046E000306F40F0010005E0400840003067306F57
:1046F00020F00400306741F28938A06868B100F00A
:1047000061FB8146306F810700F19C8000F05AFB0D
:10471000A0EB09004045F5D39BE700F053FB814631
:10472000306F810740F18E8000F04CFBA0EB090058
:104730004045F5D38DE700F045FB401B022840F2D1
:10474000968086E700F03EFB001B022840F2A7801F
:104750007FE70020386600F035FB044630688101B1
:1047600040F1A18000F02EFB001B0228F6D970E773
:1047700020784F4F81071BD5B06810F00C0F09D07F
:10478000B06800F00C0008287FF479AF706841022F
:104790003FF575AF3068810703D5E06801287FF4E5
:1047A0002DAF3168206921F0F80141EAC001316084
:1047B000217808070DD560693E4900283FF47DAF98
:1047C00001220A6000F0FEFA0546706F81077FF54E
:1047D0004FAF207841073AD5306C0025C1000AD48C
:1047E00000950125316C41F080513164306C00F04E
:1047F000805000900098DFF8C080D8F80000C10514
:104800001BD4D8F8000040F48070C8F8000000F015
:10481000D9FA8146D8F80000C1050ED400F0D2FACA
:10482000A0EB09000228F5D913E73068216920F0D0
:10483000F80040EAC1003060BAE7A06801287FF4C0
:1048400049AF4DE71DB1306C20F080503064A06955
:1048500048B3B16801F00C0108293FF4CFAE02283B
:104860007FF477AF0020386600F0ACFA0546306878
:1048700081013FF560AFE269206A616A0243A06A84
:10488000400842EA8112401E42EA0042E06A42EADF
:10489000006272600121396600F094FA04463068C3
:1048A00081017FF54FAF0020BDE8F2830038024060
:1048B00000004742800E4742007000402DE9F04161
:1048C00004000F4677D04A4E306800F00F00B8421F
:1048D00002D200F072F86ED12068464D810712D5E1
:1048E000400703D5A96841F4E051A9602078010789
:1048F00003D5A86840F46040A860A968A06821F0CA
:10490000F0010143A9602178C8074CD560680128EF
:1049100002D129688A0305E0022818BF032803D1C1
:1049200029688A0103D446E029688A0743D5A96823
:10493000890840EA8100A86000F044FA8046A8682F
:10494000616800F00C00B0EB810F2CD000F03AFA57
:10495000A0EB080041F289318842F0D3032020E027
:104960002078410705D5AA68E06822F4E0520243A6
:10497000AA602178080706D5A968206921F460415A
:1049800041EAC001A96000F03FF8AA681A491B4B30
:10499000C2F30312895CC8401860002000F018FAC6
:1049A0000020BDE8F081306800F00F008742D7D2C8
:1049B00000F003F8D4D00120F3E73770316801F03C
:1049C0000F01B94270470D48006870470B480C4A08
:1049D000006813680B49C3F3822206E00748084ABF
:1049E000006813680749C3F34232895CC8407047C6
:1049F000003C024000380240185100081C00002012
:104A0000083802401452000830B5144C606800F0B9
:104A10000C00042802D0082802D01DE0104830BD48
:104A2000226820680023410202F03F0204D5256875
:104A30000B49C5F3881003E020680A49C0F38810C9
:104A4000A1FB0001FDF7BAFD2168C1F30141491C3A
:104A50004900B0FBF1F030BD024830BD04380240DF
:104A600000127A000024F4000901020006D52A4A47
:104A700000F00F00104400F8041C7047274B195435
:104A80007047274B19684FF6FF020002114000F4EF
:104A9000E0600843234908431860704738B5204B4D
:104AA0001C68C4F30223C3F10704052C28BF0424A7
:104AB0001D1D072D34BF0023DB1E012505FA04F45C
:104AC000641E2140994005FA03F35B1E1A4011430E
:104AD000BDE83440C8E710B5401EB0F1807F01D377
:104AE000012010BD104C60600F214FF0FF30FFF728
:104AF000BBFF0021A16007202060002010BD04281A
:104B0000094904D1086840F00400086070470A6849
:104B100022F004020A60704718ED00E000E400E0B3
:104B20000CED00E00000FA0510E000E000F000B835
:104B30007047000070B5044600250CB9012070BD17
:104B400004F13C06706820B9B5603070204600F072
:104B5000A6F97068C10610D4706820F4885040F03F
:104B600002007060204600F0A7F8B560716821F07F
:104B7000020141F00101716000E001250020307068
:104B8000284670BD78B502460020009092F83C306F
:104B9000012B01D1022072BD012082F83C000724C4
:104BA0000B6810680A2B11D30A3BC56803EB43035B
:104BB00000F076F8C460C3680D688C68A5F10A0639
:104BC00006EB4606B4402343C3600FE0056903EBE0
:104BD000430304FA03F325EA0303036103690D6841
:104BE0008C6805EB4505AC40234303611F244B68EB
:104BF000072B0CD25B1E456B00F050F84463436BEF
:104C00004D680C886E1E00F044F843631BE00D2BCA
:104C10000CD2DB1F056B00F041F80463036B4D6899
:104C20000C88EE1F00F035F803630CE00D3BC56AFD
:104C300000F034F8C462C36A4D680C88A5F10D0613
:104C400000F027F8C3625A4B98421DD10C685948AE
:104C5000122C03D1036843F4800303600B68102B0C
:104C600018BF112B10D1036843F4000303600868D8
:104C7000102809D15149504C0B68B3FBF4F40A20B9
:104C80004443009400F010F8002182F83C1000200A
:104C900072BD06EB8606B4402343704703EB8303E3
:104CA0009C4025EA0404704702E00098401E0090F2
:104CB00000980028F9D170473E4A116821F440312C
:104CC0001160136841680B4313600268536823F452
:104CD000807353605168036941EA03215160516850
:104CE00021F040715160536881680B4353609368B1
:104CF00023F4006393609368C1680B439360304969
:104D0000836A8B4210D0936823F07063936093683A
:104D1000816A0B439360936823F0405393609368D8
:104D2000C16A0B43936007E0916821F07061916064
:104D3000916821F040519160916821F002019160E9
:104D40009168836941EA43019160016A00295168D1
:104D50000CD041F400615160516821F46041516010
:104D60005168436A5B1E41EA433101E021F400616E
:104D70005160D16A21F47001D162D16AC3695B1EAE
:104D800041EA0351D162916821F400719160916808
:104D9000036B41EA43219160916821F48061916045
:104DA0009168406941EA80219160704700000000ED
:104DB000002001400423014040420F001C0000205D
:104DC0000100000F01484068704700BF100000203C
:104DD00038B50D4D0D4B2A7804464FF47A7118689A
:104DE000B1FBF2F2B0FBF2F0FFF775FE50B9102CF8
:104DF00008D2002221464FF0FF30FFF74FFEAC6093
:104E0000002032BD012032BD100000201C00002017
:104E100080B50020009000226B48416841F4804139
:104E20004160416801F4804100910099009203685B
:104E300043F080530360006800F0805000900098B9
:104E40000320FFF71EFE002200216FF00B00FFF78A
:104E500025FE002200216FF00A00FFF71FFE00224E
:104E600000216FF00900FFF719FE002200216FF00A
:104E70000400FFF713FE002200216FF00300FFF78C
:104E80000DFE002200216FF00100FFF707FEBDE8D4
:104E90000840002200214FF0FF30FFF7FFBD0068FF
:104EA0004A49884200D0704780B586B00022484801
:104EB00000920322016841F480710160382100688A
:104EC00000F4807000900098424801910292002105
:104ED000039101A973E010B586B000F03AF81AD139
:104EE0000020059008230A6842F400220A6002228A
:104EF000086800F4002005900121059835480192CA
:104F0000009102910322039204936946FEF796FCF6
:104F10004FF400610EE0304A904218D10020059015
:104F20004A6842F020024A60486800F0200005907C
:104F3000C0210598009102220121029101920821CD
:104F400003220491039269462046FEF777FC06B0DF
:104F500010BD0068214A224C1B49904270472149EC
:104F60000868002800D0704780B586B001220A602A
:104F7000009002221C48016841F0010101604FF6D7
:104F80008871006800F001000090009817480191B6
:104F900002920021039103220C210591049201A9A0
:104FA000FEF74CFC4CF2B3710191022200210391F7
:104FB00002920C2103220591049201A90C48FEF7EC
:104FC0003DFC07B000BD0000403802400020014019
:104FD000443802400000024000140140004C0040F0
:104FE00000080240580200203838024000100240F9
:104FF000000C024070B58C680D6850F82560304B8D
:105000004A681E401643CB680A6926431E434B6913
:1050100016438A691E43CB6916430A6A1E434B6ACC
:1050200016438A6A1E43CB6A1643CA6B096B1E433A
:1050300016430E43082C08BF46F0400640F8256092
:10504000002070BD70B5031D001D53F822408D690E
:105050000B684E681D438B6845EA0615CE6845EA25
:1050600003250B69496945EA06455B1E45EA035578
:10507000891E04F0404445EA01652C4340F8224073
:10508000002070BD70B5B3F5804F13D150F8225099
:105090000C4C0B684E6825401D438B68CC688969B1
:1050A00045EA061545EA032545EA04450D4340F85F
:1050B000225003E06FF0704340F82230002070BDB2
:1050C0008000F0FF0000F0CF0E48016841F470014D
:1050D000016000220C49086840F0010008608A6005
:1050E0000B680A480A4A03400B604A6000200B68BC
:1050F000084A23F480230B60C8604FF00061116000
:105100007047000088ED00E000380240FFFFF6FE27
:105110001030002408ED00E0000000000000000056
:10512000010203040607080910B50749794418313C
:10513000064C7C44163404E00A68081D1144884774
:105140000146A142F8D110BD2C000000480000002B
:105150004EF68851CEF20001086840F470000860F5
:10516000BFF34F8FBFF36F8F4FF00070E1EE100A67
:105170007047000067D2FFFFC0010000A0000020C0
:10518000000000004FD1FFFFDE0100008A00000098
:10519000000000207047FEE7FEE7FEE7FEE77047ED
:1051A0007047704780B500F005F8BDE80140FFF793
:1051B000BDBC00000248416802788A18426070470E
:1051C0001000002000F00DF8002801D0FFF7ACFF20
:1051D000AFF300800020AFF30080FDF7FCFF00F08C
:1051E00002F80120704700F001B800000746384679
:1051F000FDF77EFFFBE700000148804701480047BC
:10520000C950000809520008AFF30080FFF7A0FF63
:10521000FFF7D8FF000000000102030400002E0089
:105220004300FFF7FEBFFFF7FEBFFFF7FEBFFFF72C
:10523000FEBFFFF7FEBFFFF7FEBFFFF7FEBFFFF7A2
:10524000FEBFFFF7FEBFFFF7FEBFFFF7FEBFFFF792
:10525000FEBFFFF7FEBFFFF7FEBFFFF7FEBFFFF782
:10526000FEBFFFF7FEBFFFF7FEBFFFF7FEBFFFF772
:10527000FEBFFFF7FEBFFFF7FEBFFFF7FEBFFFF762
:10528000FEBFFFF7FEBFFFF7FEBFFFF7FEBFFFF752
:10529000FEBFFFF7FEBFFFF7FEBFFFF7FEBFFFF742
:1052A000FEBFFFF7FEBFFFF7FEBFFFF7FEBFFFF732
:1052B000FEBFFFF7FEBFFFF7FEBFFFF7FEBFFFF722
:1052C000FEBFFFF7FEBFFFF7FEBFFFF7FEBFFFF712
:1052D000FEBFFFF7FEBFFFF7FEBFFFF7FEBFFFF702
:1052E000FEBFFFF7FEBFFFF7FEBFFFF7FEBFFFF7F2
:1052F000FEBFFFF7FEBFFFF7FEBFFFF7FEBFFFF7E2
:10530000FEBFFFF7FEBFFFF7FEBFFFF7FEBFFFF7D1
:10531000FEBFFFF7FEBFFFF7FEBFFFF7FEBFFFF7C1
:10532000FEBFFFF7FEBFFFF7FEBFFFF7FEBFFFF7B1
:10533000FEBFFFF7FEBFFFF7FEBFFFF7FEBFFFF7A1
:10534000FEBFFFF7FEBFFFF7FEBFFFF7FEBFFFF791
:10535000FEBFFFF7FEBFFFF7FEBFFFF7FEBFFFF781
:10536000FEBFFFF7FEBF10030000FFFF0001400873
:105370008801000810001800010001221008F00543
:105380000724F4001C5200080452FF01F2001E140E
:1053900010010000200C214C322003F115012002E5
:0B53A0009D2400082C438B243C2101BD
:040000050800520994
:00000001FF
